:020000040800F2
:1000000000800120D91E0008751E0008771E000818
:10001000791E00087B1E00087D1E000800000000FD
:100020000000000000000000000000007F1E00082B
:10003000811E000800000000831E0008851E0008C5
:10004000291F0008291F0008291F0008291F000870
:10005000291F0008291F0008291F0008291F000860
:10006000291F0008291F0008291F0008291F000850
:10007000291F0008291F0008291F0008291F000840
:10008000291F0008291F0008291F00080000000080
:10009000000000000000000000000000291F000810
:1000A000291F0008291F0008291F0008291F000810
:1000B000291F0008291F0008291F0008291F000800
:1000C000291F0008291F0008291F0008291F0008F0
:1000D000291F0008291F0008291F00080000000030
:1000E000291F0008291F0008291F00080000000020
:1000F000000000000000000000000000291F0008B0
:1001000000000000291F0008291F0008291F0008FF
:1001100000000000000000000000000000000000DF
:10012000291F0008291F0008291F0008291F00088F
:10013000291F00080000000000000000000000006F
:10014000000000000000000000000000291F00085F
:10015000291F0008291F0008291F0008291F00085F
:10016000291F0008291F00080000000000000000EF
:10017000000000000000000000000000000000007F
:1001800000000000291F000800000000000000001F
:04019000291F00081B
:1001940010B5054C237833B9044B13B10448AFF3BD
:1001A40000800123237010BD0C000020000000001B
:1001B4009C1F000808B5034B1BB103490348AFF368
:1001C400008008BD00000000100000209C1F0008F3
:1001D40053B94AB9002908BF00281CBF4FF0FF31AA
:1001E4004FF0FF3000F072B9ADF1080C6DE904CEA8
:1001F40000F006F8DDF804E0DDE9022304B07047FE
:100204002DE9F047089E04468846002B4BD18A42CC
:10021400154667D9B2FA82F24AB1C2F1200701FA4F
:1002240002F320FA07F7954047EA030894404FEA9F
:10023400154E230CB8FBFEF71FFA85FC0EFB17883E
:1002440043EA084307FB0CF1994209D9EB1807F17B
:10025400FF3080F01B81994240F21881023F2B4409
:100264005B1AA4B2B3FBFEF00EFB103344EA034462
:1002740000FB0CFCA44509D92C1900F1FF3380F0D4
:100284000781A44540F2048102382C4440EA074027
:10029400A4EB0C0400271EB1D4400023C6E900439C
:1002A4003946BDE8F0878B4209D9002E00F0EB8077
:1002B4000027C6E9000138463946BDE8F087B3FA9D
:1002C40083F7002F47D18B4202D3824200F2FA8097
:1002D400841A61EB030301209846002EE0D0C6E99E
:1002E4000048DDE702B9FFDEB2FA82F2002A40F0EC
:1002F4008F80491B4FEA154E1FFA85F80127B1FB81
:10030400FEFC230C0EFB1C1143EA014308FB0CF119
:10031400994207D9EB180CF1FF3002D2994200F24E
:10032400CD808446591AA3B2B1FBFEF00EFB101423
:1003340043EA044408FB00F8A04507D92C1900F14E
:10034400FF3302D2A04500F2B6801846A4EB08049D
:1003540040EA0C409FE7C7F1200CBB4022FA0CFE98
:100364004EEA030E01FA07F420FA0CF521FA0CF315
:100374004FEA1E482543B3FBF8F92C0C08FB19334C
:100384001FFA8EFA44EA034309FB0AF49C4202FA78
:1003940007F200FA07F10BD91EEB030309F1FF3052
:1003A40080F087809C4240F28480A9F10209734462
:1003B4001B1BADB2B3FBF8F008FB103345EA034452
:1003C40000FB0AFAA24508D91EEB040400F1FF332E
:1003D4006BD2A24569D90238744440EA0940A0FBB3
:1003E4000289A4EB0A044C45C2464B4654D351D06F
:1003F400002E69D0B1EB0A0564EB030404FA0CFC8B
:10040400FD40FC404CEA0505C6E90054002747E7D7
:10041400C2F1200320FA03F7954001FA02F021FA11
:1004240003F34FEA154E3843010CB3FBFEF71FFAF2
:1004340085F80EFB173341EA034107FB08F38B42AF
:1004440004FA02F407D9691807F1FF3C2FD28B4252
:100454002DD9023F2944CB1A81B2B3FBFEF00EFB27
:10046400103341EA034100FB08F38B4207D96918B2
:1004740000F1FF3C17D28B4215D902382944C91A1E
:1004840040EA07473BE73746304609E70746E7E6D1
:100494001846FBE64145ABD2B8EB020A69EB0E0203
:1004A40001381346A4E76046E9E7184695E767462E
:1004B400D1E781467CE702382C4447E7ACF1020CD3
:1004C4002B442FE7384608E73746E9E6704700BF74
:1004D40010B504460E4B18784FF47A73B3FBF0F35F
:1004E4000C4A1068B0FBF3F000F09CF868B90F2CCC
:1004F40001D901200AE0002221464FF0FF3000F02C
:100504005DF8034B5C60002000E0012010BD00BFDB
:10051400000000200800002008B50B4B1A6842F4C4
:1005240000721A601A6842F480621A601A6842F40F
:1005340080721A60032000F02FF80020FFF7C8FF34
:1005440001F0DAFB002008BD003C0240034A1168B8
:10055400034B1B780B441360704700BFAC000020B2
:1005640000000020014B1868704700BFAC00002059
:1005740038B50446FFF7F6FF0546B4F1FF3F02D055
:10058400044B1B781C44FFF7EDFF401BA042FAD339
:1005940038BD00BF00000020074AD36823F4E0639D
:1005A4001B041B0C000200F4E060184340F0BF6021
:1005B40040F40030D060704700ED00E030B4174BD9
:1005C400DB68C3F30223C3F10704042C28BF04240B
:1005D4001D1D062D18D9033B4FF0FF3505FA04F411
:1005E40021EA0401994005FA03F322EA03031943BB
:1005F40000280BDB0901C9B200F1604000F561403D
:1006040080F8001330BC70470023E5E700F00F00CA
:100614000901C9B2024B1954F4E700BF00ED00E030
:1006240014ED00E00138B0F1807F0AD2064B586027
:10063400064AF02182F823100020986007221A60ED
:1006440070470120704700BF10E000E000ED00E0BB
:1006540068B110B5044643792BB1022363710123B9
:100664006371002010BD037101F066FBF5E7012002
:100674007047000000230F2B00F2C580F0B482B055
:1006840039E0042200E00022B2403A4302345E4ED4
:1006940046F824205D4A1468EA4302EA04064F68D7
:1006A40017F4803F01D045EA0406584C266064687C
:1006B40002EA04064F6817F4003F01D045EA040635
:1006C400524C6660A46802EA04064F6817F4801F5F
:1006D40001D045EA04064D4CA660E46822404E6809
:1006E40016F4001F01D045EA0402484CE2600133CD
:1006F4000F2B00F2858001229A400C6804EA02055F
:10070400AA42F4D14C68022C01D0122C10D1DE087C
:10071400083650F826C003F00704A7000F24BC4095
:100724002CEA040C0C69BC4044EA0C0440F8264052
:1007340004685F000326BE40F64306EA040C4C68D6
:1007440004F00304BC4044EA0C0404604C6804F163
:10075400FF3CBCF1010F03D9112C01D0122C10D194
:10076400846806EA040CCC68BC4044EA0C04846047
:10077400446824EA02024C68C4F300149C40144305
:100784004460C26816408A68BA403243C2604A680C
:1007940012F0805FABD0002201921D4A546C44F4E5
:1007A40080445464526C02F480420192019A9C0881
:1007B400A61C154A52F8267003F0030296000F2275
:1007C400B24027EA0207134A90423FF45CAF02F5B5
:1007D400806290420ED002F5806290420CD002F505
:1007E400806290420AD002F5806290423FF449AFA1
:1007F400072249E7012247E7022245E7032243E7AC
:1008040002B0F0BC7047704700380140003C014022
:10081400003802400000024012B9090481617047A7
:1008240081617047002800F0BB8170B582B0044636
:10083400036813F0010F3BD0A74B9B6803F00C0334
:10084400042B2CD0A44B9B6803F00C03082B21D061
:100854006368B3F5803F4FD0B3F5A02F52D09E4BC1
:100864001A6822F480321A601A6822F480221A600C
:100874006368002B50D0FFF775FE0546964B1B6846
:1008840013F4003F14D1FFF76DFE401B6428F5D923
:1008940003208AE1904B5B6813F4800FD8D08E4B11
:1008A4001B6813F4003F03D06368002B00F07A81C7
:1008B400236813F0020F55D0874B9B6813F00C0F7D
:1008C4003ED0854B9B6803F00C03082B33D0E368C0
:1008D400002B68D0814B01221A60FFF743FE0546C6
:1008E4007D4B1B6813F0020F54D1FFF73BFE401BF6
:1008F4000228F5D9032058E1774A136843F480337A
:100904001360B5E7744B1A6842F480221A601A68BF
:1009140042F480321A60ABE7FFF724FE05466E4BC3
:100924001B6813F4003FC3D0FFF71CFE401B642870
:10093400F5D9032039E1684B5B6813F4800FC6D105
:10094400654B1B6813F0020F04D0E368012B01D040
:1009540001202AE1604A136823F0F803216943EA7D
:10096400C1031360236813F0080F40D0636963B3B5
:100974005B4B01221A60FFF7F5FD0546564B5B6F92
:1009840013F0020F33D1FFF7EDFD401B0228F5D918
:1009940003200AE1504A136823F0F803216943EA6B
:1009A400C1031360DEE74D4B00221A60FFF7DAFD46
:1009B4000546494B1B6813F0020FD3D0FFF7D2FD55
:1009C400401B0228F5D90320EFE0454B00221A60B2
:1009D400FFF7C8FD0546404B5B6F13F0020F06D0CE
:1009E400FFF7C0FD401B0228F5D90320DDE0236892
:1009F40013F0040F79D0384B1B6C13F0805F33D1A4
:100A040000230193344B1A6C42F080521A641B6C1D
:100A140003F080530193019B0125324B1B6813F4AF
:100A2400807F23D0A368012B34D0052B38D02A4BE8
:100A34001A6F22F001021A671A6F22F004021A6771
:100A4400A368002B36D0FFF78DFD0646224B1B6FA3
:100A540013F0020F48D1FFF785FD801B41F2883364
:100A64009842F3D90320A0E00025D6E71D4A136875
:100A740043F480731360FFF775FD0646194B1B683A
:100A840013F4807FCED1FFF76DFD801B0228F5D9CA
:100A940003208AE0104A136F43F001031367CFE782
:100AA4000D4B1A6F42F004021A671A6F42F00102EA
:100AB4001A67C5E7FFF756FD0646074B1B6F13F091
:100AC400020F11D0FFF74EFD801B41F2883398428C
:100AD400F3D9032069E000BF003802400000474218
:100AE400800E474200700040E5B9A369002B5BD03B
:100AF400304A926802F00C02082A58D0022B17D010
:100B04002D4B00221A60FFF72DFD0446294B1B686C
:100B140013F0007F42D0FFF725FD001B0228F5D912
:100B2400032042E0234A136C23F080531364DCE770
:100B3400214B00221A60FFF715FD05461D4B1B686B
:100B440013F0007F06D0FFF70DFD401B0228F5D9F6
:100B540003202AE0E369226A1343626A43EA8213A8
:100B6400A26A5208013A43EA0243E26A43EA026390
:100B7400104A5360104B01221A60FFF7F3FC04463D
:100B84000C4B1B6813F0007F06D1FFF7EBFC001B36
:100B94000228F5D9032008E0002006E0002004E044
:100BA40001207047012000E0002002B070BD012048
:100BB400FBE700BF0038024060004742324B9B68AD
:100BC40003F00C03042B5CD0082B01D02F48704792
:100BD4002DE9F04B2C4B5A6802F03F025B6813F48A
:100BE400800F2BD0284B5B68C3F388131E46002765
:100BF4005C010025E41A65EB0705A90141EA94614B
:100C0400A001001B61EB0501CB0043EA5073C40053
:100C1400A01943EB07014B0243EAD0534402204698
:100C240019460023FFF7D4FA174B5B68C3F301435B
:100C340001335B00B0FBF3F0BDE8F08B124B5B6853
:100C4400C3F388131E4600275C010025E41A65EBF4
:100C54000705A90141EA9461A001001B61EB0501AC
:100C6400CB0043EA5073C400A01943EB07018B0285
:100C740043EA90538402204619460023FFF7A8FA5A
:100C8400D2E70348704700BF003802400024F40054
:100C940000127A00002800F09D8070B504464F4B86
:100CA4001B6803F00F038B4209D2CBB24B4A13707B
:100CB400136803F00F038B4201D0012070BD236839
:100CC40013F0020F17D013F0040F04D0444A9368B2
:100CD40043F4E0539360236813F0080F04D0404AB0
:100CE400936843F4604393603D4A936823F0F003B0
:100CF400A068034393600D46236813F0010F32D0BC
:100D04006368012B21D09A1E012A25D9344A12681E
:100D140012F0020F60D032498A6822F003021343B2
:100D24008B60FFF71FFC06462D4B9B6803F00C03FA
:100D34006268B3EB820F16D0FFF714FC801B41F2FC
:100D440088339842F0D90320B8E7254A126812F490
:100D5400003FE0D10120B1E7214A126812F0007F80
:100D6400D9D10120AAE71D4B1B6803F00F03AB4246
:100D740009D9EAB2194B1A701B6803F00F03AB428E
:100D840001D001209AE7236813F0040F06D0144A17
:100D9400936823F4E053E1680B439360236813F0F2
:100DA400080F07D00E4A936823F46043216943EA8D
:100DB400C1039360FFF702FF094B9B68C3F303135E
:100DC400084AD35CD840084B18600020FFF780FB2A
:100DD400002073E70120704701206FE7003C0240C8
:100DE40000380240A820000808000020014B1868C1
:100DF400704700BF0800002008B5FFF7F7FF044B59
:100E04009B68C3F38223034AD35CD84008BD00BF68
:100E140000380240B820000808B5FFF7E7FF044B8C
:100E24009B68C3F34233034AD35CD84008BD00BF78
:100E340000380240B8200008F8B505460F461646AB
:100E44001C462B689B6837EA03030CBF012300236D
:100E5400B34237D0B4F1FF3FF3D0FFF783FB069BD7
:100E6400C01AA04201D2002CEBD12A68536823F0A7
:100E7400E00353606B68B3F5827F0BD0AB6AB3F5C4
:100E8400005F14D0012385F85130002385F85030D9
:100E9400032018E0AB68B3F5004F02D0B3F5806FC0
:100EA400ECD12A68136823F040031360E6E72A684C
:100EB400136823F4005313602A68136843F400533F
:100EC4001360DFE70020F8BD30B585B0164C246808
:100ED400164DA5FB0434640D4FF47A7505FB04F438
:100EE40003944468B4F5827F0BD0039BC3B1039B86
:100EF400013B039303689B6813F0800FF5D1002333
:100F04000FE00B460446009200228021FFF794FF75
:100F1400034630B1636D43F020036365032300E0AF
:100F24000023184605B030BD08000020819F5E16DE
:100F340000283BD010B504460023836290F851305A
:100F4400002B2ED0022384F851302268136823F03A
:100F5400400313606368A2681343E2681343226981
:100F6400134362691343A26902F400721343E269F2
:100F74001343226A1343A16A22680B431360638BF1
:100F840003F00403616A22680B4353602268D36947
:100F940023F40063D36100206065012384F8513099
:100FA40010BD80F8503000F0DFFECBE70120704721
:100FB4002DE9F04182B090F85040012C00F0C3803C
:100FC4001D46174688460446012380F85030FFF733
:100FD400C9FA064694F85130DBB2012B09D002203D
:100FE400012384F85130002384F8503002B0BDE866
:100FF400F081B8F1000F00F09880002F00F0978086
:10100400032384F8513000236365C4F83080A78635
:10101400E786A363A387E38763642364A368B3F5C4
:10102400004F1CD023681A6812F0400F03D11A68CD
:1010340042F040021A60E368B3F5006F15D06368AC
:101044000BB1012F49D1226B236812781A73236BD9
:1010540001332363E38E013B9BB2E3863DE02268C8
:10106400136843F480431360DCE763680BB1012F1A
:1010740015D1226B23681288DA60236B0233236351
:10108400E38E013B9BB2E38609E0FFF76BFA801B1A
:10109400A84202D3B5F1FF3F4BD1002D4BD0E38ED4
:1010A4009BB2002B2CD023689A6812F0020FECD06C
:1010B400226B1288DA60236B02332363E38E013BD5
:1010C4009BB2E386EBE7FFF74DFA801BA84202D3FD
:1010D400B5F1FF3F31D1002D31D0E38E9BB27BB10E
:1010E40023689A6812F0020FEDD0226B12781A73FB
:1010F400236B01332363E38E013B9BB2E386ECE76E
:10110400324629462046FFF7DFFE08B120236365F7
:10111400A36833B901932368DA6801929B68019349
:10112400019B636D6BB900205AE7012058E7012049
:1011340056E7032054E7032052E7032050E7032037
:101144004EE701204CE7022050E72DE9F04383B03D
:10115400DDF8288090F85040012C00F00B811D46EA
:1011640017460E460446012380F85030FFF7FAF97B
:10117400814694F85100C0B26368012815D0B3F5D4
:10118400827F0AD00223012284F85120002284F8AD
:101194005020184603B0BDE8F083A368002B40F04C
:1011A400DB80042801D00223EDE7002E00F0D68076
:1011B400002F00F0D580002D00F0D48094F8513039
:1011C400DBB2042B02D0052384F85130002363657D
:1011D400A763E587A5872663E586A58623646364FC
:1011E40023681A6812F0400F03D11A6842F04002D3
:1011F4001A60E368B3F5006F10D063680BB1012D7A
:101204000AD1226B236812781A73236B0133236388
:10121400E38E013B9BB2E386012569E063680BB171
:10122400012D0AD1226B23681288DA60236B023302
:101234002363E38E013B9BB2E38601251BE0236815
:101244009A6812F0010F0DD0E28F92B252B1DA68AF
:10125400A36B1A80A36B0233A363E38F013B9BB29E
:10126400E3870125FFF77EF9A0EB0900404502D38F
:10127400B8F1FF3F78D1E38E9BB21BB9E38F9BB2E9
:10128400002B52D023689A6812F0020FD7D0E28E56
:1012940092B2002AD3D0002DD1D0226B1288DA600A
:1012A400236B02332363E38E013B9BB2E386002569
:1012B400C5E723689A6812F0010F0DD0E28F92B24D
:1012C40052B1DA68A36B1A70A36B0133A363E38F83
:1012D400013B9BB2E3870125FFF744F9A0EB09002A
:1012E400404502D3B8F1FF3F40D1B8F1000F3FD0E1
:1012F400E38E9BB213B9E38F9BB2B3B123689A68B0
:1013040012F0020FD5D0E28E92B2002AD1D0002D75
:10131400CFD0226B12781A73236B01332363E38ECD
:10132400013B9BB2E3860025C3E74A46414620467B
:10133400FFF7CAFD034618B120236365012322E7A2
:10134400A268002A7FF41FAF01922268D16801913C
:1013540092680192019A16E7022314E7012312E727
:10136400012310E701230EE703230CE703230AE715
:10137400032308E702230CE72DE9F8430446026837
:10138400136923F44053C1680B43136183680269F2
:10139400134342691343C2691A430168CB6823F4B7
:1013A400164323F00C031343CB600268536923F400
:1013B400407381690B435361C369B3F5004F60D037
:1013C4000368B84A934200F0148102F580629342A4
:1013D40000F00F81FFF710FD00EB800000EB8000B0
:1013E4006568AD00B0FBF5F5AF4FA7FB05356D099A
:1013F4002E01FFF701FD00EB800000EB8000656823
:10140400AD00B0FBF5F9FFF7F7FC00EB800000EB53
:1014140080006568AD00B0FBF5F5A7FB05356D09E7
:101424004FF0640808FB15952D013235A7FB0535EF
:101434006D0905F0F0053544FFF7DEFC00EB800094
:1014440000EB80006668B600B0FBF6F6FFF7D4FC4C
:1014540000EB800000EB800063689B00B0FBF3F0BE
:10146400A7FB0030400908FB10684FEA081808F190
:101474003208A7FB0837C7F3431723682F449F603C
:101484000DE10368874A93425BD002F58062934280
:1014940057D0FFF7B1FC00EB800000EB80006568DB
:1014A4006D00B0FBF5F5804FA7FB05356D092E01E6
:1014B400FFF7A2FC00EB800000EB800065686D0084
:1014C400B0FBF5F9FFF798FC00EB800000EB80001F
:1014D40065686D00B0FBF5F5A7FB05356D094FF0A8
:1014E400640808FB1595ED003235A7FB05356D0939
:1014F4006D0005F4F8753544FFF77EFC00EB8000C1
:1015040000EB800066687600B0FBF6F6FFF774FC2B
:1015140000EB800000EB800063685B00B0FBF3F33A
:10152400A7FB03235B0908FB13684FEAC80808F10B
:101534003208A7FB0837C7F3421723682F449F607C
:10154400ADE0FFF769FC00EB800000EB800065680C
:101554006D00B0FBF5F5544FA7FB05356D092E0161
:10156400FFF75AFC00EB800000EB800065686D001B
:10157400B0FBF5F9FFF750FC00EB800000EB8000B6
:1015840065686D00B0FBF5F5A7FB05356D094FF0F7
:10159400640808FB1595ED003235A7FB05356D0988
:1015A4006D0005F4F8753544FFF736FC00EB800058
:1015B40000EB800066687600B0FBF6F6FFF72CFCC3
:1015C40000EB800000EB800063685B00B0FBF3F38A
:1015D400A7FB03235B0908FB13684FEAC80808F15B
:1015E4003208A7FB0837C7F3421723682F449F60CC
:1015F40055E0FFF711FC00EB800000EB800065680C
:10160400AD00B0FBF5F5284FA7FB05356D092E019C
:10161400FFF702FC00EB800000EB80006568AD0082
:10162400B0FBF5F9FFF7F8FB00EB800000EB80005E
:101634006568AD00B0FBF5F5A7FB05356D094FF006
:10164400640808FB15952D013235A7FB05356D0996
:1016540005F0F0053544FFF7DFFB00EB800000EBFD
:1016640080006668B600B0FBF6F6FFF7D5FB00EB2A
:10167400800000EB800063689B00B0FBF3F0A7FBE5
:101684000030400908FB10684FEA081808F13208D6
:10169400A7FB0837C7F3431723682F449F60BDE8AF
:1016A400F88300BF001001401F85EB512DE9F04184
:1016B40005460F4616469846069C2B681B6837EA73
:1016C40003030CBF01230023B3421DD1B4F1FF3F38
:1016D400F3D02CB1FEF746FFA0EB0800A042ECD9F2
:1016E4002A68D36823F4D073D3602A68536923F03B
:1016F40001035361202385F8393085F83A300023FB
:1017040085F83830032000E00020BDE8F08158B3AC
:1017140010B5044690F839300BB3242384F83930DB
:101724002268D36823F40053D3602046FFF724FED5
:101734002268136923F4904313612268536923F0E8
:101744002A0353612268D36843F40053D360002012
:10175400E063202384F8393084F83A3010BD80F8EF
:10176400383000F04FFBD8E7012070472DE9F041F5
:1017740082B01E4690F83930DBB2202B55D1044696
:101784000D469046002955D0002A55D090F838309F
:10179400012B53D0012380F838300023C363212365
:1017A40080F83930FEF7DEFE0746A4F82480A4F85A
:1017B400268010E000963B46002280212046FFF759
:1017C40075FF00283CD12B882268C3F308035360BB
:1017D4002369C3B90235E38C9BB2B3B1E38C013BFB
:1017E4009BB2E384A368B3F5805FE3D000963B46E5
:1017F400002280212046FFF759FF18BB2A7823686E
:101804005A600135E7E70135E5E700963B460022DB
:1018140040212046FFF74AFF0346A8B9202284F856
:101824003920002284F8382000E00223184602B050
:10183400BDE8F0810123F9E70123F7E70223F5E787
:101844000323F3E70323F1E70323EFE730B58BB07A
:1018540000240594069407940894099401942A4B4F
:101864001A6B42F004021A631A6B02F0040201922A
:10187400019A02941A6B42F080021A631A6B02F006
:1018840080020292029A03941A6B42F001021A63D4
:101894001A6B02F001020392039A04941A6B42F049
:1018A40002021A631B6B03F002030493049B174D9B
:1018B400224630212846FEF7AFFF01224FF40041B3
:1018C4002846FEF7A9FF4FF400530593104B0693E7
:1018D400079405A90F48FEF7CDFE48F2300305939F
:1018E400012306930794089405A92846FEF7C2FE2F
:1018F4004FF4805305930694079405A90648FEF710
:10190400B9FE0BB030BD00BF0038024000000240F9
:1019140000002110000802400004024008B50348FA
:10192400034B0360FEF794FE08BD00BF0C010020CA
:101934000030024008B50C480C4B03604FF482732E
:10194400436000238360C360036143614FF400720A
:1019540082611822C2610362436283620A23C36202
:10196400FFF7E6FA08BD00BFB000002000380040D1
:1019740008B50848084B03604FF4E1334360002383
:101984008360C36003610C2242618361C361FFF71A
:10199400BEFE08BD180100200044004010B584B00C
:1019A4008DF80F000D4C00224FF400412046FEF745
:1019B40033FF41F28833009301230DF10E020DF140
:1019C4000F010748FFF7C1FB01224FF400412046F5
:1019D400FEF722FF9DF80E0004B010BD0000024087
:1019E400B000002030B585B000230293B0F53C5F11
:1019F4001ED28DF80C008DF80D100225114C00221A
:101A04004FF400412046FEF707FF41F2883300936C
:101A14002B4602AA03A90C48FFF797FB01224FF4B7
:101A240000412046FEF7F8FE9DF8080005B030BDE1
:101A34002F238DF80C308DF80D008DF80E10032532
:101A4400DCE700BF00000240B000002010B53020E9
:101A5400FFF7A4FF002409E0064B03EB440393F8CB
:101A6400591093F85800FFF7BDFF01342E2CF3D919
:101A740010BD00BFB41F000870B584B00E4600232B
:101A84000293B0F53C5F27D240F080008DF80C0043
:101A940000238DF80D300224144D00224FF4004130
:101AA4002846FEF7B9FE41F288330093234602AA82
:101AB40003A90F48FFF749FB01224FF400412846D0
:101AC400FEF7AAFE013C04AB1C4414F8083C337036
:101AD4009DF8080004B070BDAF238DF80C308DF86C
:101AE4000D0000238DF80E300324D5E700000240DA
:101AF400B000002070B514460F4E33467F2103F822
:101B0400011B0146184600F033FA0C4D00224FF435
:101B140000412846FEF780FE621C41F2883392B2EF
:101B240031460748FFF744FA01224FF400412846A2
:101B3400FEF772FE70BD00BF2800002000000240C6
:101B4400B000002030B595B03022002108A800F084
:101B54001AFA0024039404940594069407940194B7
:101B64001B4B1A6C42F080521A641B6C03F08053B6
:101B74000193019B0294174A136823F4404343F4EE
:101B840000431360136803F440430293029B02254D
:101B9400089501230B9310230C930E950F94109327
:101BA4004FF4A8731193042312930723139308A8E3
:101BB400FEF738FE0F230393049505944FF48053E6
:101BC40006930794294603A8FFF764F815B030BDBF
:101BD400003802400070004080B590B0FEF79CFCD5
:101BE400FFF7B0FFFFF732FEFFF798FEFFF7A2FE04
:101BF400FFF7BEFE4FF0410810AE06F8018D3146E6
:101C040042F68F70FFF738FF4FF47A70FEF7B0FC9E
:101C1400374F4FF0FF33012231463846FFF7A6FD18
:101C24003020FFF7BBFE8DF83F8031462020FFF7C0
:101C340023FF4FF0FF33012231463846FFF796FD6C
:101C44008DF83E80FFF702FF8DF83F80314620205B
:101C5400FFF712FF4FF0FF33012231463846FFF7FA
:101C640085FD3120FFF79AFE3D20FFF797FE0DF129
:101C7400400909F8020D4FF4FA6301224946384637
:101C8400FFF774FD0A20FEF773FC6C46194D0FCD67
:101C94000FC40FCD0FC40FCD0FC495E8070084E81F
:101CA40007003C2249466846FFF724FF8DF83F8031
:101CB4003146BF20FFF7E0FE4FF0FF3301223146EB
:101CC4003846FFF753FD3520FFF768FE3D20FFF748
:101CD40065FE10A901F8020D4FF4FA6301220448CD
:101CE400FFF744FD4FF47A70FEF742FCEEE700BFC5
:101CF400180100206C20000800B583B00021009179
:101D04000C4B5A6C42F480425A645A6C02F480427E
:101D14000092009A01911A6C42F080521A641B6C72
:101D240003F080530193019B0720FEF735FC03B0B9
:101D34005DF804FB003802400268094B9A4200D067
:101D4400704782B000230193064B1A6B42F4805211
:101D54001A631B6B03F480530193019B02B0704719
:101D64000030024000380240F0B589B000230393EC
:101D7400049305930693079302681F4B9A4201D07C
:101D840009B0F0BD0024009403F500331A6C42F44A
:101D940080421A641A6C02F480420092009A019400
:101DA4001A6B42F004021A631A6B02F004020192E5
:101DB400019A02941A6B42F002021A631B6B03F03D
:101DC40002030293029B0C23039302270497032626
:101DD4000696052507950DEB03010848FEF74AFC16
:101DE4004FF480630393049705940696079503A91B
:101DF4000348FEF73FFCC3E70038004000080240F8
:101E04000004024000B589B00023039304930593B2
:101E1400069307930268144B9A4202D009B05DF806
:101E240004FB0021019103F5FA331A6C42F40032E9
:101E34001A641A6C02F400320192019A02911A6B2C
:101E440042F001021A631B6B03F001030293029B2D
:101E54000C230393022304930723079303A9034842
:101E6400FEF708FCDAE700BF00440040000002402F
:101E74007047FEE7FEE7FEE7FEE7704770477047EE
:101E840008B5FEF763FB08BD0F49D1F8883043F469
:101E94007003C1F888300D4B1A6842F001021A60D1
:101EA400002098601A6822F0847222F480321A604A
:101EB400074A5A601A6822F480221A60D8604FF0E8
:101EC40000638B60704700BF00ED00E00038024003
:101ED40010300024DFF834D0002103E00C4B5B58B1
:101EE400435004310B480C4B42189A42F6D30B4A28
:101EF40002E0002342F8043B094B9A42F9D3FFF76E
:101F0400C3FF00F011F8FFF767FE7047008001205F
:101F1400D0200008000000200C0000200C0000204D
:101F240058010020FEE7000070B50D4E0D4CA41BB7
:101F3400A4100025A54209D10B4E0C4C00F02CF83E
:101F4400A41BA4100025A54205D170BD56F8253068
:101F540098470135EEE756F8253098470135F2E702
:101F6400C8200008C8200008C8200008CC200008A9
:101F740010B5431E0A44914200D110BD11F8014B23
:101F840003F8014FF7E702440346934200D1704738
:101F940003F8011BF9E70000F8B500BFF8BC08BC62
:101FA4009E467047F8B500BFF8BC08BC9E46704713
:101FB40000B0010802B00309080B0C1C0D0010C688
:101FC40012061305172018191CA91DCF1E00200383
:101FD40021142605270028202B6B000001220C6CFD
:101FE4000D801200135F1640170E19031B331D17C3
:101FF4001F50206E211422AC27B4320E36038F48B2
:10200400902191089210000000B0010802B0030969
:10201400080B10260B050C130D000E3310001103D2
:102024001304173018EC1AD11B3F1C321D9F1E00DD
:1020340021142606270028402B662D560000010097
:10204400020A05010C6C0DF10E2F1200135F1640ED
:10205400170E19031B331D171F50206E211422ACB9
:1020640027B4320E36030000010001000100010014
:102074000100010001000100010001000100010054
:102084000100010001000100010001000100010044
:102094000100010001000100010001000100010034
:1020A4000100010000000000000000000102030420
:0C20B400060708090000000001020304F8
:0820C00044E1FF7F0100000074
:0420C800B901000852
:0420CC009501000872
:0C20D00001000000100000000024F400DB
:0400000508001ED9F8
:00000001FF
