:020000040800F2
:10000000008001204D190008C9180008CB1800080D
:10001000CD180008CF180008D11800080000000013
:10002000000000000000000000000000D3180008DD
:10003000D518000800000000D7180008D9180008DB
:100040009D1900089D1900089D1900089D190008B8
:100050009D1900089D1900089D1900089D190008A8
:100060009D1900089D1900089D1900089D19000898
:100070009D1900089D1900089D1900089D19000888
:100080009D1900089D1900089D1900080000000036
:100090000000000000000000000000009D190008A2
:1000A0009D1900089D1900089D1900089D19000858
:1000B0009D1900089D1900089D1900089D19000848
:1000C0009D1900089D1900089D1900089D19000838
:1000D0009D1900089D190008E118000800000000A3
:1000E0009D1900089D1900089D19000800000000D6
:1000F0000000000000000000000000009D19000842
:10010000000000009D1900089D1900089D190008B5
:1001100000000000000000000000000000000000DF
:100120009D1900089D1900089D1900089D190008D7
:100130009D19000800000000000000000000000001
:100140000000000000000000000000009D190008F1
:100150009D1900089D1900089D1900089D190008A7
:100160009D1900089D190008000000000000000013
:10017000000000000000000000000000000000007F
:10018000000000009D1900080000000000000000B1
:040190009D190008AD
:1001940010B5054C237833B9044B13B10448AFF3BD
:1001A40000800123237010BD0C000020000000001B
:1001B400F819000808B5034B1BB103490348AFF312
:1001C400008008BD0000000010000020F81900089D
:1001D40053B94AB9002908BF00281CBF4FF0FF31AA
:1001E4004FF0FF3000F072B9ADF1080C6DE904CEA8
:1001F40000F006F8DDF804E0DDE9022304B07047FE
:100204002DE9F047089E04468846002B4BD18A42CC
:10021400154667D9B2FA82F24AB1C2F1200701FA4F
:1002240002F320FA07F7954047EA030894404FEA9F
:10023400154E230CB8FBFEF71FFA85FC0EFB17883E
:1002440043EA084307FB0CF1994209D9EB1807F17B
:10025400FF3080F01B81994240F21881023F2B4409
:100264005B1AA4B2B3FBFEF00EFB103344EA034462
:1002740000FB0CFCA44509D92C1900F1FF3380F0D4
:100284000781A44540F2048102382C4440EA074027
:10029400A4EB0C0400271EB1D4400023C6E900439C
:1002A4003946BDE8F0878B4209D9002E00F0EB8077
:1002B4000027C6E9000138463946BDE8F087B3FA9D
:1002C40083F7002F47D18B4202D3824200F2FA8097
:1002D400841A61EB030301209846002EE0D0C6E99E
:1002E4000048DDE702B9FFDEB2FA82F2002A40F0EC
:1002F4008F80491B4FEA154E1FFA85F80127B1FB81
:10030400FEFC230C0EFB1C1143EA014308FB0CF119
:10031400994207D9EB180CF1FF3002D2994200F24E
:10032400CD808446591AA3B2B1FBFEF00EFB101423
:1003340043EA044408FB00F8A04507D92C1900F14E
:10034400FF3302D2A04500F2B6801846A4EB08049D
:1003540040EA0C409FE7C7F1200CBB4022FA0CFE98
:100364004EEA030E01FA07F420FA0CF521FA0CF315
:100374004FEA1E482543B3FBF8F92C0C08FB19334C
:100384001FFA8EFA44EA034309FB0AF49C4202FA78
:1003940007F200FA07F10BD91EEB030309F1FF3052
:1003A40080F087809C4240F28480A9F10209734462
:1003B4001B1BADB2B3FBF8F008FB103345EA034452
:1003C40000FB0AFAA24508D91EEB040400F1FF332E
:1003D4006BD2A24569D90238744440EA0940A0FBB3
:1003E4000289A4EB0A044C45C2464B4654D351D06F
:1003F400002E69D0B1EB0A0564EB030404FA0CFC8B
:10040400FD40FC404CEA0505C6E90054002747E7D7
:10041400C2F1200320FA03F7954001FA02F021FA11
:1004240003F34FEA154E3843010CB3FBFEF71FFAF2
:1004340085F80EFB173341EA034107FB08F38B42AF
:1004440004FA02F407D9691807F1FF3C2FD28B4252
:100454002DD9023F2944CB1A81B2B3FBFEF00EFB27
:10046400103341EA034100FB08F38B4207D96918B2
:1004740000F1FF3C17D28B4215D902382944C91A1E
:1004840040EA07473BE73746304609E70746E7E6D1
:100494001846FBE64145ABD2B8EB020A69EB0E0203
:1004A40001381346A4E76046E9E7184695E767462E
:1004B400D1E781467CE702382C4447E7ACF1020CD3
:1004C4002B442FE7384608E73746E9E6704700BF74
:1004D40010B504460E4B18784FF47A73B3FBF0F35F
:1004E4000C4A1068B0FBF3F000F096F868B90F2CD2
:1004F40001D901200AE0002221464FF0FF3000F02C
:1005040049F8034B5C60002000E0012010BD00BFEF
:10051400000000200800002008B50B4B1A6842F4C4
:1005240000721A601A6842F480621A601A6842F40F
:1005340080721A60032000F01BF80020FFF7C8FF48
:1005440001F0FEF8002008BD003C0240034A116897
:10055400034B1B780B441360704700BF2800002036
:1005640000000020014B1868704700BF28000020DD
:10057400074AD36823F4E0631B041B0C000200F455
:10058400E060184340F0BF6040F40030D060704732
:1005940000ED00E030B4174BDB68C3F30223C3F172
:1005A4000704042C28BF04241D1D062D18D9033B61
:1005B4004FF0FF3505FA04F421EA0401994005FAE5
:1005C40003F322EA0303194300280BDB0901C9B230
:1005D40000F1604000F5614080F8001330BC7047C2
:1005E4000023E5E700F00F000901C9B2024B1954DA
:1005F400F4E700BF00ED00E014ED00E0002807DBA5
:1006040000F01F02400901239340024A42F82030BF
:10061400704700BF00E100E00138B0F1807F0AD2EA
:10062400064B5860064AF02182F823100020986097
:1006340007221A6070470120704700BF10E000E0F5
:1006440000ED00E068B110B5044643792BB10223F4
:10065400637101236371002010BD037101F090F8F0
:10066400F5E70120704790F83530DBB2022B03D058
:100674008023436501207047052380F835300268E4
:10068400136823F0010313600020704700230F2B2D
:1006940000F2C580F0B482B039E0042200E0002208
:1006A400B2403A4302345E4E46F824205D4A146850
:1006B400EA4302EA04064F6817F4803F01D045EA92
:1006C4000406584C2660646802EA04064F6817F46E
:1006D400003F01D045EA0406524C6660A46802EA71
:1006E40004064F6817F4801F01D045EA04064D4CF8
:1006F400A660E46822404E6816F4001F01D045EA63
:100704000402484CE26001330F2B00F28580012281
:100714009A400C6804EA0205AA42F4D14C68022CFF
:1007240001D0122C10D1DE08083650F826C003F090
:100734000704A7000F24BC402CEA040C0C69BC403D
:1007440044EA0C0440F8264004685F000326BE40D7
:10075400F64306EA040C4C6804F00304BC4044EA83
:100764000C0404604C6804F1FF3CBCF1010F03D994
:10077400112C01D0122C10D1846806EA040CCC6828
:10078400BC4044EA0C048460446824EA02024C68D5
:10079400C4F300149C4014434460C26816408A6841
:1007A400BA403243C2604A6812F0805FABD0002284
:1007B40001921D4A546C44F480445464526C02F413
:1007C40080420192019A9C08A61C154A52F8267090
:1007D40003F0030296000F22B24027EA0207134AED
:1007E40090423FF45CAF02F5806290420ED002F575
:1007F400806290420CD002F5806290420AD002F5E9
:10080400806290423FF449AF072249E7012247E75B
:10081400022245E7032243E702B0F0BC7047704769
:1008240000380140003C0140003802400000024012
:1008340012B909048161704781617047002800F092
:10084400BB8170B582B00446036813F0010F3BD03E
:10085400A74B9B6803F00C03042B2CD0A44B9B6880
:1008640003F00C03082B21D06368B3F5803F4FD00D
:10087400B3F5A02F52D09E4B1A6822F480321A602E
:100884001A6822F480221A606368002B50D0FFF7A4
:1008940069FE0546964B1B6813F4003F14D1FFF71D
:1008A40061FE401B6428F5D903208AE1904B5B6804
:1008B40013F4800FD8D08E4B1B6813F4003F03D081
:1008C4006368002B00F07A81236813F0020F55D07F
:1008D400874B9B6813F00C0F3ED0854B9B6803F04D
:1008E4000C03082B33D0E368002B68D0814B012222
:1008F4001A60FFF737FE05467D4B1B6813F0020FA5
:1009040054D1FFF72FFE401B0228F5D9032058E1EC
:10091400774A136843F480331360B5E7744B1A685D
:1009240042F480221A601A6842F480321A60ABE7FB
:10093400FFF718FE05466E4B1B6813F4003FC3D047
:10094400FFF710FE401B6428F5D9032039E1684BFA
:100954005B6813F4800FC6D1654B1B6813F0020F5C
:1009640004D0E368012B01D001202AE1604A136816
:1009740023F0F803216943EAC1031360236813F0E9
:10098400080F40D0636963B35B4B01221A60FFF721
:10099400E9FD0546564B5B6F13F0020F33D1FFF7A9
:1009A400E1FD401B0228F5D903200AE1504A1368EF
:1009B40023F0F803216943EAC1031360DEE74D4BDA
:1009C40000221A60FFF7CEFD0546494B1B6813F061
:1009D400020FD3D0FFF7C6FD401B0228F5D9032030
:1009E400EFE0454B00221A60FFF7BCFD0546404B83
:1009F4005B6F13F0020F06D0FFF7B4FD401B022813
:100A0400F5D90320DDE0236813F0040F79D0384BC7
:100A14001B6C13F0805F33D100230193344B1A6CA9
:100A240042F080521A641B6C03F080530193019BC3
:100A34000125324B1B6813F4807F23D0A368012B5C
:100A440034D0052B38D02A4B1A6F22F001021A67D2
:100A54001A6F22F004021A67A368002B36D0FFF73E
:100A640081FD0646224B1B6F13F0020F48D1FFF79E
:100A740079FD801B41F288339842F3D90320A0E02A
:100A84000025D6E71D4A136843F480731360FFF70B
:100A940069FD0646194B1B6813F4807FCED1FFF71E
:100AA40061FD801B0228F5D903208AE0104A136FE8
:100AB40043F001031367CFE70D4B1A6F42F00402B2
:100AC4001A671A6F42F001021A67C5E7FFF74AFD79
:100AD4000646074B1B6F13F0020F11D0FFF742FDC0
:100AE400801B41F288339842F3D9032069E000BFA8
:100AF4000038024000004742800E47420070004028
:100B0400E5B9A369002B5BD0304A926802F00C026D
:100B1400082A58D0022B17D02D4B00221A60FFF759
:100B240021FD0446294B1B6813F0007F42D0FFF7D8
:100B340019FD001B0228F5D9032042E0234A136C57
:100B440023F080531364DCE7214B00221A60FFF783
:100B540009FD05461D4B1B6813F0007F06D0FFF707
:100B640001FD401B0228F5D903202AE0E369226A2B
:100B74001343626A43EA8213A26A5208013A43EABF
:100B84000243E26A43EA0263104A5360104B0122B3
:100B94001A60FFF7E7FC04460C4B1B6813F0007F58
:100BA40006D1FFF7DFFC001B0228F5D9032008E07B
:100BB400002006E0002004E001207047012000E04E
:100BC400002002B070BD0120FBE700BF00380240E6
:100BD40060004742324B9B6803F00C03042B5CD04B
:100BE400082B01D02F4870472DE9F04B2C4B5A6845
:100BF40002F03F025B6813F4800F2BD0284B5B6834
:100C0400C3F388131E4600275C010025E41A65EB34
:100C14000705A90141EA9461A001001B61EB0501EC
:100C2400CB0043EA5073C400A01943EB07014B0205
:100C340043EAD0534402204619460023FFF7C8FA7A
:100C4400174B5B68C3F3014301335B00B0FBF3F064
:100C5400BDE8F08B124B5B68C3F388131E46002774
:100C64005C010025E41A65EB0705A90141EA9461DA
:100C7400A001001B61EB0501CB0043EA5073C400E3
:100C8400A01943EB07018B0243EA905384022046E8
:100C940019460023FFF79CFAD2E70348704700BFC8
:100CA400003802400024F40000127A00002800F00A
:100CB4009D8070B504464F4B1B6803F00F038B42B5
:100CC40009D2CBB24B4A1370136803F00F038B4263
:100CD40001D0012070BD236813F0020F17D013F068
:100CE400040F04D0444A936843F4E05393602368A8
:100CF40013F0080F04D0404A936843F460439360B0
:100D04003D4A936823F0F003A068034393600D46C3
:100D1400236813F0010F32D06368012B21D09A1E8F
:100D2400012A25D9344A126812F0020F60D03249E0
:100D34008A6822F0030213438B60FFF713FC064614
:100D44002D4B9B6803F00C036268B3EB820F16D043
:100D5400FFF708FC801B41F288339842F0D9032046
:100D6400B8E7254A126812F4003FE0D10120B1E748
:100D7400214A126812F0007FD9D10120AAE71D4B45
:100D84001B6803F00F03AB4209D9EAB2194B1A707E
:100D94001B6803F00F03AB4201D001209AE72368DC
:100DA40013F0040F06D0144A936823F4E053E16867
:100DB4000B439360236813F0080F07D00E4A93681F
:100DC40023F46043216943EAC1039360FFF702FF00
:100DD400094B9B68C3F30313084AD35CD840084B00
:100DE40018600020FFF774FB002073E701207047B0
:100DF40001206FE7003C024000380240101A00084E
:100E040008000020014B1868704700BF080000204C
:100E140008B5FFF7F7FF044B9B68C3F38223034A2B
:100E2400D35CD84008BD00BF00380240201A000837
:100E340008B5FFF7E7FF044B9B68C3F34233034A4B
:100E4400D35CD84008BD00BF00380240201A000817
:100E540000283BD010B504460023836290F851303B
:100E6400002B2ED0022384F851302268136823F01B
:100E7400400313606368A2681343E2681343226962
:100E8400134362691343A26902F400721343E269D3
:100E94001343226A1343A16A22680B431360638BD2
:100EA40003F00403616A22680B4353602268D36928
:100EB40023F40063D36100206065012384F851307A
:100EC40010BD80F8503000F073FCCBE70120704770
:100ED4000268D36823F49073D3600268536923F0E3
:100EE40001035361202380F83A30704790F8393079
:100EF400DBB2212B2AD18368B3F5805F16D0036A55
:100F04005A1C02621A7803685A60C38C013B9BB274
:100F1400C384EBB90268D36823F08003D36002680A
:100F2400D36843F04003D36000207047036A1B88F2
:100F34000268C3F30803536003691BB9036A0233ED
:100F44000362E2E7036A01330362DEE702207047CB
:100F5400002070472DE9F84304460268136923F41E
:100F64004053C1680B4313618368026913434269A8
:100F74001343C2691A430168CB6823F4164323F070
:100F84000C031343CB600268536923F440738169F3
:100F94000B435361C369B3F5004F60D00368B84A8B
:100FA400934200F0148102F58062934200F00F81B5
:100FB400FFF72EFF00EB800000EB80006568AD00BA
:100FC400B0FBF5F5AF4FA7FB05356D092E01FFF713
:100FD4001FFF00EB800000EB80006568AD00B0FBF4
:100FE400F5F9FFF715FF00EB800000EB8000656862
:100FF400AD00B0FBF5F5A7FB05356D094FF06408AE
:1010040008FB15952D013235A7FB05356D0905F053
:10101400F0053544FFF7FCFE00EB800000EB800098
:101024006668B600B0FBF6F6FFF7F2FE00EB800050
:1010340000EB800063689B00B0FBF3F0A7FB00307B
:10104400400908FB10684FEA081808F13208A7FBAA
:101054000837C7F3431723682F449F600DE10368E3
:10106400874A93425BD002F58062934257D0FFF7E0
:10107400CFFE00EB800000EB800065686D00B0FBE4
:10108400F5F5804FA7FB05356D092E01FFF7C0FE6E
:1010940000EB800000EB800065686D00B0FBF5F9A3
:1010A400FFF7B6FE00EB800000EB800065686D0082
:1010B400B0FBF5F5A7FB05356D094FF0640808FB97
:1010C4001595ED003235A7FB05356D096D0005F466
:1010D400F8753544FFF79CFE00EB800000EB8000C0
:1010E40066687600B0FBF6F6FFF792FE00EB800030
:1010F40000EB800063685B00B0FBF3F3A7FB032302
:101104005B0908FB13684FEAC80808F13208A7FB1B
:101114000837C7F3421723682F449F60ADE0FFF7F9
:1011240087FE00EB800000EB800065686D00B0FB7B
:10113400F5F5544FA7FB05356D092E01FFF778FE31
:1011440000EB800000EB800065686D00B0FBF5F9F2
:10115400FFF76EFE00EB800000EB800065686D0019
:10116400B0FBF5F5A7FB05356D094FF0640808FBE6
:101174001595ED003235A7FB05356D096D0005F4B5
:10118400F8753544FFF754FE00EB800000EB800057
:1011940066687600B0FBF6F6FFF74AFE00EB8000C7
:1011A40000EB800063685B00B0FBF3F3A7FB032351
:1011B4005B0908FB13684FEAC80808F13208A7FB6B
:1011C4000837C7F3421723682F449F6055E0FFF7A1
:1011D4002FFE00EB800000EB80006568AD00B0FBE3
:1011E400F5F5284FA7FB05356D092E01FFF720FE05
:1011F40000EB800000EB80006568AD00B0FBF5F902
:10120400FFF716FE00EB800000EB80006568AD0080
:10121400B0FBF5F5A7FB05356D094FF0640808FB35
:1012240015952D013235A7FB05356D0905F0F0053F
:101234003544FFF7FDFD00EB800000EB800066689D
:10124400B600B0FBF6F6FFF7F3FD00EB800000EB11
:10125400800063689B00B0FBF3F0A7FB00304009FB
:1012640008FB10684FEA081808F13208A7FB083792
:10127400C7F3431723682F449F60BDE8F88300BF7A
:10128400001001401F85EB5158B310B5044690F887
:1012940039300BB3242384F839302268D36823F41B
:1012A4000053D3602046FFF755FE2268136923F4E8
:1012B400904313612268536923F02A03536122681F
:1012C400D36843F40053D3600020E063202384F800
:1012D400393084F83A3010BD80F8383000F0B6FA6E
:1012E400D8E70120704790F83A30DBB2202B20D1A8
:1012F40009B312B390F83830012B20D08162828573
:10130400C2850023C363222280F83A2080F8383053
:101314000168CA6842F48072CA6001684A6942F08E
:1013240001024A610168CA6842F02002CA60184694
:101334007047022070470120704701207047022047
:101344007047704708B50168CB6823F04003CB6051
:10135400202380F83930FFF7F4FF002008BD7047E0
:1013640008B590F83A30DBB2222B45D18368B3F547
:10137400805F0ED0036903BB03685A68836A591CF3
:1013840081621A70C38D013B9BB2C385F3B1002007
:1013940033E0826A036943B903685B68C3F30803F3
:1013A4001380836A02338362ECE703685B68DBB211
:1013B4001380836A01338362E4E703685B68826AAB
:1013C400511C816203F07F031370DBE70268D3686A
:1013D40023F02003D3600268D36823F48073D360BE
:1013E4000268536923F001035361202380F83A30E3
:1013F400FFF7B5FF002000E0022008BD70470000A1
:1014040010B5044602681368D168526913F00F00DE
:1014140005D113F0200F02D011F0200F53D1002872
:1014240067D012F0010202D111F4907F61D013F061
:10143400010F06D011F4807F03D0E06B40F001006F
:10144400E06313F0040F04D01AB1E06B40F0020023
:10145400E06313F0020F04D01AB1E06B40F0040013
:10146400E06313F0080F04D01AB1E26B42F00802F3
:10147400E263E26B002A48D013F0200F02D011F08F
:10148400200F24D123685B6903F04003E26B12F060
:10149400080F00D13BB32046FFF71AFD23685A69B1
:1014A40012F0400F1BD05A6922F040025A61636B5C
:1014B4008BB11A4A1A65606BFFF7D5F828B3606BD5
:1014C400036D984721E02046FFF74AFF1DE02046C0
:1014D400FFF746FFD6E72046FFF790FF15E02046CA
:1014E400FFF78CFF11E02046FFF788FF0023E3633A
:1014F4000BE013F0800F02D011F0800F06D113F02F
:10150400400F02D011F0400F04D110BD2046FFF768
:10151400EDFCFAE72046FFF715FFF6E7251500086E
:1015240008B5806B0023C385C384FFF767FF08BD3C
:1015340030B58BB00024059406940794089409945C
:1015440001942A4B1A6B42F004021A631A6B02F0DC
:1015540004020192019A02941A6B42F080021A6307
:101564001A6B02F080020292029A03941A6B42F000
:1015740001021A631A6B02F001020392039A0494A3
:101584001A6B42F002021A631B6B03F0020304930A
:10159400049B174D224630212846FFF749F90122C2
:1015A4004FF400412846FFF743F94FF400530593E5
:1015B400104B0693079405A90F48FFF767F848F204
:1015C40030030593012306930794089405A928463C
:1015D400FFF75CF84FF4805305930694079405A92C
:1015E4000648FFF753F80BB030BD00BF0038024087
:1015F40000000240000021100008024000040240E4
:1016040008B50348034B0360FFF71CF808BD00BF8F
:10161400880000200030024008B50C480C4B0360E1
:101624004FF48273436000238360C360036101222B
:1016340042614FF400728261C3618022026243629C
:1016440083620A23C362FFF703FC08BD2C00002059
:101654000038004008B50848084B03604FF4E133F4
:10166400436000238360C36003610C224261836191
:10167400C361FFF709FE08BD980000200044004044
:1016840030B595B03022002108A800F0ABF9002451
:101694000394049405940694079401941B4B1A6CC8
:1016A40042F080521A641B6C03F080530193019B37
:1016B4000294174A136823F4404343F4004313602D
:1016C400136803F440430293029B02250895012307
:1016D4000B9310230C930E950F9410934FF4A8734F
:1016E4001193042312930723139308A8FFF7A6F872
:1016F4000F230393049505944FF4805306930794A2
:10170400294603A8FFF7D2FA15B030BD00380240CD
:101714000070004008B5FEF7FFFEFFF7B1FFFFF7CA
:1017240007FFFFF76DFFFFF777FFFFF793FF034B0B
:101734001A68D36843F02003D360FEE798000020C2
:1017440000B583B0002100910C4B5A6C42F48042E6
:101754005A645A6C02F480420092009A01911A6C05
:1017640042F080521A641B6C03F080530193019B76
:101774000720FEF7FDFE03B05DF804FB00380240CD
:101784000268094B9A4200D0704782B0002301934B
:10179400064B1A6B42F480521A631B6B03F480539A
:1017A4000193019B02B070470030024000380240B0
:1017B400F0B589B00023039304930593069307932C
:1017C40002681F4B9A4201D009B0F0BD0024009476
:1017D40003F500331A6C42F480421A641A6C02F462
:1017E40080420092009A01941A6B42F004021A6338
:1017F4001A6B02F004020192019A02941A6B42F0ED
:1018040002021A631B6B03F002030293029B0C2374
:1018140003930227049703260696052507950DEBE7
:1018240003010848FEF732FF4FF4806303930497E3
:1018340005940696079503A90348FEF727FFC3E717
:1018440000380040000802400004024010B588B08F
:101854000023039304930593069307930268174B9D
:101864009A4201D008B010BD0024019403F5FA3364
:101874001A6C42F400321A641A6C02F400320192B7
:10188400019A02941A6B42F001021A631B6B03F073
:1018940001030293029B0C23039302230493072363
:1018A400079303A90648FEF7F1FE224621462620A7
:1018B400FEF770FE2620FEF7A1FED3E700440040A9
:1018C400000002407047FEE7FEE7FEE7FEE77047D0
:1018D4007047704708B5FEF739FE08BD10B5054CD2
:1018E4002046FFF78DFD042203492046FFF7FBFC49
:1018F40010BD00BF98000020940000200F49D1F8CB
:10190400883043F47003C1F888300D4B1A6842F0F4
:1019140001021A60002098601A6822F0847222F48E
:1019240080321A60074A5A601A6822F480221A60C8
:10193400D8604FF000638B60704700BF00ED00E09B
:101944000038024010300024DFF834D0002103E0D6
:101954000C4B5B58435004310B480C4B42189A42D1
:10196400F6D30B4A02E0002342F8043B094B9A42A7
:10197400F9D3FFF7C3FF00F011F8FFF7CBFE704770
:1019840000800120381A0008000000200C0000200C
:101994000C000020D8000020FEE7000070B50D4EBA
:1019A4000D4CA41BA4100025A54209D10B4E0C4CD0
:1019B40000F020F8A41BA4100025A54205D170BD99
:1019C40056F8253098470135EEE756F82530984704
:1019D4000135F2E7301A0008301A0008301A0008FE
:1019E400341A000802440346934200D1704703F8B6
:1019F400011BF9E7F8B500BFF8BC08BC9E46704768
:0C1A0400F8B500BFF8BC08BC9E46704757
:101A1000000000000000000001020304060708099E
:081A20000000000001020304B4
:081A2800DCE7FF7F0100000074
:041A3000B9010008F0
:041A34009501000810
:0C1A380001000000100000000024F40079
:040000050800194D89
:00000001FF
